{
  "_format": "hh-sol-artifact-1",
  "contractName": "MockUniswapRouter",
  "sourceName": "src/MockUniswapRouter.sol",
  "abi": [
    {
      "inputs": [
        {
          "internalType": "address",
          "name": "_priceFeed",
          "type": "address"
        }
      ],
      "stateMutability": "nonpayable",
      "type": "constructor"
    },
    {
      "anonymous": false,
      "inputs": [
        {
          "indexed": true,
          "internalType": "address",
          "name": "token",
          "type": "address"
        },
        {
          "indexed": true,
          "internalType": "address",
          "name": "to",
          "type": "address"
        },
        {
          "indexed": false,
          "internalType": "uint256",
          "name": "ethIn",
          "type": "uint256"
        },
        {
          "indexed": false,
          "internalType": "uint256",
          "name": "tokenOut",
          "type": "uint256"
        }
      ],
      "name": "Swap",
      "type": "event"
    },
    {
      "inputs": [],
      "name": "FEE_BPS",
      "outputs": [
        {
          "internalType": "uint256",
          "name": "",
          "type": "uint256"
        }
      ],
      "stateMutability": "view",
      "type": "function"
    },
    {
      "inputs": [],
      "name": "SLIPPAGE_BPS",
      "outputs": [
        {
          "internalType": "uint256",
          "name": "",
          "type": "uint256"
        }
      ],
      "stateMutability": "view",
      "type": "function"
    },
    {
      "inputs": [],
      "name": "priceFeed",
      "outputs": [
        {
          "internalType": "contract IMockPriceFeed",
          "name": "",
          "type": "address"
        }
      ],
      "stateMutability": "view",
      "type": "function"
    },
    {
      "inputs": [
        {
          "internalType": "uint256",
          "name": "minAmountOut",
          "type": "uint256"
        },
        {
          "internalType": "address",
          "name": "token",
          "type": "address"
        },
        {
          "internalType": "address",
          "name": "to",
          "type": "address"
        }
      ],
      "name": "swapExactETHForTokens",
      "outputs": [
        {
          "internalType": "uint256",
          "name": "amountOut",
          "type": "uint256"
        }
      ],
      "stateMutability": "payable",
      "type": "function"
    }
  ],
  "bytecode": "0x608060405234801561001057600080fd5b5060405161061b38038061061b83398101604081905261002f91610054565b600080546001600160a01b0319166001600160a01b0392909216919091179055610084565b60006020828403121561006657600080fd5b81516001600160a01b038116811461007d57600080fd5b9392505050565b610588806100936000396000f3fe60806040526004361061003f5760003560e01c8063741bef1a1461004457806377f8bb6d14610081578063bf333f2c146100a4578063ee19d536146100b9575b600080fd5b34801561005057600080fd5b50600054610064906001600160a01b031681565b6040516001600160a01b0390911681526020015b60405180910390f35b34801561008d57600080fd5b5061009660c881565b604051908152602001610078565b3480156100b057600080fd5b50610096601e81565b6100966100c73660046103cc565b600080341161010b5760405162461bcd60e51b815260206004820152600b60248201526a139bc8115512081cd95b9d60aa1b60448201526064015b60405180910390fd5b600080546040516341976e0960e01b81526001600160a01b038681166004830152909116906341976e0990602401602060405180830381865afa158015610156573d6000803e3d6000fd5b505050506040513d601f19601f8201168201806040525081019061017a9190610408565b9050600081116101c15760405162461bcd60e51b81526020600482015260126024820152714e6f20707269636520617661696c61626c6560701b6044820152606401610102565b60006305f5e1006101d28334610437565b6101dc919061046a565b905060006127106101ee601e8261047e565b6101f89084610437565b610202919061046a565b6040805142602082015244918101919091526bffffffffffffffffffffffff19606089811b82168184015288901b16607482015234608882015290915060009060a80160408051601f1981840301815291905280516020909101209050600060c861026f61019184610491565b61027991906104a5565b9050600061271061028a83866104cc565b61029491906104fc565b905060006102a2828661052a565b905060008112156102b1575060005b8097508a8810156102f85760405162461bcd60e51b815260206004820152601160248201527014db1a5c1c1859d948195e18d959591959607a1b6044820152606401610102565b6040516340c10f1960e01b81526001600160a01b038a81166004830152602482018a90528b16906340c10f1990604401600060405180830381600087803b15801561034257600080fd5b505af1158015610356573d6000803e3d6000fd5b505060408051348152602081018c90526001600160a01b03808e1694508e1692507ffa2dda1cc1b86e41239702756b13effbc1a092b5c57e3ad320fbe4f3b13fe235910160405180910390a3505050505050509392505050565b80356001600160a01b03811681146103c757600080fd5b919050565b6000806000606084860312156103e157600080fd5b833592506103f1602085016103b0565b91506103ff604085016103b0565b90509250925092565b60006020828403121561041a57600080fd5b5051919050565b634e487b7160e01b600052601160045260246000fd5b808202811582820484141761044e5761044e610421565b92915050565b634e487b7160e01b600052601260045260246000fd5b60008261047957610479610454565b500490565b8181038181111561044e5761044e610421565b6000826104a0576104a0610454565b500690565b81810360008312801583831316838312821617156104c5576104c5610421565b5092915050565b80820260008212600160ff1b841416156104e8576104e8610421565b818105831482151761044e5761044e610421565b60008261050b5761050b610454565b600160ff1b82146000198414161561052557610525610421565b500590565b808201828112600083128015821682158216171561054a5761054a610421565b50509291505056fea2646970667358221220e694da73d3ec60f2511a64f4f84a5aa4d415f86fe57354b36f848092f4117c5264736f6c63430008140033",
  "linkReferences": {},
  "deployedLinkReferences": {}
}