{
  "_format": "hh-sol-artifact-1",
  "contractName": "CapitalVault",
  "sourceName": "src/CapitalVault.sol",
  "abi": [
    {
      "inputs": [],
      "stateMutability": "nonpayable",
      "type": "constructor"
    },
    {
      "inputs": [
        {
          "internalType": "address",
          "name": "owner",
          "type": "address"
        }
      ],
      "name": "OwnableInvalidOwner",
      "type": "error"
    },
    {
      "inputs": [
        {
          "internalType": "address",
          "name": "account",
          "type": "address"
        }
      ],
      "name": "OwnableUnauthorizedAccount",
      "type": "error"
    },
    {
      "inputs": [],
      "name": "ReentrancyGuardReentrantCall",
      "type": "error"
    },
    {
      "anonymous": false,
      "inputs": [
        {
          "indexed": true,
          "internalType": "address",
          "name": "investor",
          "type": "address"
        },
        {
          "indexed": true,
          "internalType": "address",
          "name": "agent",
          "type": "address"
        },
        {
          "indexed": false,
          "internalType": "uint8",
          "name": "pool",
          "type": "uint8"
        },
        {
          "indexed": false,
          "internalType": "uint256",
          "name": "amount",
          "type": "uint256"
        },
        {
          "indexed": false,
          "internalType": "uint256",
          "name": "maxDrawdownBps",
          "type": "uint256"
        },
        {
          "indexed": false,
          "internalType": "uint256",
          "name": "maxAllocationWei",
          "type": "uint256"
        }
      ],
      "name": "DelegationDeposited",
      "type": "event"
    },
    {
      "anonymous": false,
      "inputs": [
        {
          "indexed": true,
          "internalType": "address",
          "name": "agent",
          "type": "address"
        },
        {
          "indexed": false,
          "internalType": "uint256",
          "name": "drawdownBps",
          "type": "uint256"
        }
      ],
      "name": "DrawdownBreached",
      "type": "event"
    },
    {
      "anonymous": false,
      "inputs": [
        {
          "indexed": true,
          "internalType": "address",
          "name": "previousOwner",
          "type": "address"
        },
        {
          "indexed": true,
          "internalType": "address",
          "name": "newOwner",
          "type": "address"
        }
      ],
      "name": "OwnershipTransferred",
      "type": "event"
    },
    {
      "anonymous": false,
      "inputs": [
        {
          "indexed": true,
          "internalType": "address",
          "name": "agent",
          "type": "address"
        }
      ],
      "name": "RiskLimitEnforced",
      "type": "event"
    },
    {
      "anonymous": false,
      "inputs": [
        {
          "indexed": true,
          "internalType": "address",
          "name": "agent",
          "type": "address"
        },
        {
          "indexed": true,
          "internalType": "address",
          "name": "tokenOut",
          "type": "address"
        },
        {
          "indexed": false,
          "internalType": "uint256",
          "name": "amountIn",
          "type": "uint256"
        },
        {
          "indexed": false,
          "internalType": "uint256",
          "name": "amountOut",
          "type": "uint256"
        },
        {
          "indexed": false,
          "internalType": "uint256",
          "name": "timestamp",
          "type": "uint256"
        },
        {
          "indexed": false,
          "internalType": "string",
          "name": "tradeType",
          "type": "string"
        }
      ],
      "name": "TradeExecuted",
      "type": "event"
    },
    {
      "anonymous": false,
      "inputs": [
        {
          "indexed": false,
          "internalType": "address[]",
          "name": "agents",
          "type": "address[]"
        },
        {
          "indexed": false,
          "internalType": "uint256[]",
          "name": "weights",
          "type": "uint256[]"
        }
      ],
      "name": "WeightsUpdated",
      "type": "event"
    },
    {
      "inputs": [],
      "name": "AGGRESSIVE",
      "outputs": [
        {
          "internalType": "uint8",
          "name": "",
          "type": "uint8"
        }
      ],
      "stateMutability": "view",
      "type": "function"
    },
    {
      "inputs": [],
      "name": "BALANCED",
      "outputs": [
        {
          "internalType": "uint8",
          "name": "",
          "type": "uint8"
        }
      ],
      "stateMutability": "view",
      "type": "function"
    },
    {
      "inputs": [],
      "name": "CONSERVATIVE",
      "outputs": [
        {
          "internalType": "uint8",
          "name": "",
          "type": "uint8"
        }
      ],
      "stateMutability": "view",
      "type": "function"
    },
    {
      "inputs": [],
      "name": "DELEGATION_TYPEHASH",
      "outputs": [
        {
          "internalType": "bytes32",
          "name": "",
          "type": "bytes32"
        }
      ],
      "stateMutability": "view",
      "type": "function"
    },
    {
      "inputs": [],
      "name": "DOMAIN_SEPARATOR",
      "outputs": [
        {
          "internalType": "bytes32",
          "name": "",
          "type": "bytes32"
        }
      ],
      "stateMutability": "view",
      "type": "function"
    },
    {
      "inputs": [],
      "name": "MAX_DRAWDOWN_BPS",
      "outputs": [
        {
          "internalType": "uint256",
          "name": "",
          "type": "uint256"
        }
      ],
      "stateMutability": "view",
      "type": "function"
    },
    {
      "inputs": [],
      "name": "PERFORMANCE_FEE_BPS",
      "outputs": [
        {
          "internalType": "uint256",
          "name": "",
          "type": "uint256"
        }
      ],
      "stateMutability": "view",
      "type": "function"
    },
    {
      "inputs": [
        {
          "internalType": "address",
          "name": "",
          "type": "address"
        }
      ],
      "name": "agentCurrentValue",
      "outputs": [
        {
          "internalType": "uint256",
          "name": "",
          "type": "uint256"
        }
      ],
      "stateMutability": "view",
      "type": "function"
    },
    {
      "inputs": [
        {
          "internalType": "address",
          "name": "",
          "type": "address"
        }
      ],
      "name": "agentDeployedWei",
      "outputs": [
        {
          "internalType": "uint256",
          "name": "",
          "type": "uint256"
        }
      ],
      "stateMutability": "view",
      "type": "function"
    },
    {
      "inputs": [
        {
          "internalType": "address",
          "name": "",
          "type": "address"
        }
      ],
      "name": "agentPeakValue",
      "outputs": [
        {
          "internalType": "uint256",
          "name": "",
          "type": "uint256"
        }
      ],
      "stateMutability": "view",
      "type": "function"
    },
    {
      "inputs": [
        {
          "internalType": "address",
          "name": "",
          "type": "address"
        }
      ],
      "name": "agentPnL",
      "outputs": [
        {
          "internalType": "int256",
          "name": "",
          "type": "int256"
        }
      ],
      "stateMutability": "view",
      "type": "function"
    },
    {
      "inputs": [
        {
          "internalType": "address",
          "name": "",
          "type": "address"
        },
        {
          "internalType": "address",
          "name": "",
          "type": "address"
        }
      ],
      "name": "agentTokenBalances",
      "outputs": [
        {
          "internalType": "uint256",
          "name": "",
          "type": "uint256"
        }
      ],
      "stateMutability": "view",
      "type": "function"
    },
    {
      "inputs": [
        {
          "internalType": "address",
          "name": "",
          "type": "address"
        }
      ],
      "name": "agentWeights",
      "outputs": [
        {
          "internalType": "uint256",
          "name": "",
          "type": "uint256"
        }
      ],
      "stateMutability": "view",
      "type": "function"
    },
    {
      "inputs": [],
      "name": "allocationEngine",
      "outputs": [
        {
          "internalType": "address",
          "name": "",
          "type": "address"
        }
      ],
      "stateMutability": "view",
      "type": "function"
    },
    {
      "inputs": [
        {
          "internalType": "address",
          "name": "token",
          "type": "address"
        },
        {
          "internalType": "uint256",
          "name": "amount",
          "type": "uint256"
        }
      ],
      "name": "borrowFromAave",
      "outputs": [],
      "stateMutability": "nonpayable",
      "type": "function"
    },
    {
      "inputs": [
        {
          "internalType": "address",
          "name": "",
          "type": "address"
        },
        {
          "internalType": "address",
          "name": "",
          "type": "address"
        }
      ],
      "name": "delegations",
      "outputs": [
        {
          "internalType": "address",
          "name": "agent",
          "type": "address"
        },
        {
          "internalType": "uint256",
          "name": "maxDrawdownBps",
          "type": "uint256"
        },
        {
          "internalType": "uint256",
          "name": "maxAllocationWei",
          "type": "uint256"
        }
      ],
      "stateMutability": "view",
      "type": "function"
    },
    {
      "inputs": [
        {
          "internalType": "uint8",
          "name": "pool",
          "type": "uint8"
        },
        {
          "internalType": "address",
          "name": "agent",
          "type": "address"
        },
        {
          "internalType": "uint256",
          "name": "maxDrawdownBps",
          "type": "uint256"
        },
        {
          "internalType": "uint256",
          "name": "maxAllocationWei",
          "type": "uint256"
        },
        {
          "internalType": "bytes",
          "name": "",
          "type": "bytes"
        }
      ],
      "name": "depositETH",
      "outputs": [],
      "stateMutability": "payable",
      "type": "function"
    },
    {
      "inputs": [
        {
          "internalType": "address",
          "name": "agent",
          "type": "address"
        }
      ],
      "name": "enforceDrawdownLimit",
      "outputs": [],
      "stateMutability": "nonpayable",
      "type": "function"
    },
    {
      "inputs": [
        {
          "internalType": "address",
          "name": "tokenOut",
          "type": "address"
        },
        {
          "internalType": "uint256",
          "name": "amountIn",
          "type": "uint256"
        },
        {
          "internalType": "uint256",
          "name": "minAmountOut",
          "type": "uint256"
        }
      ],
      "name": "executeSwap",
      "outputs": [],
      "stateMutability": "nonpayable",
      "type": "function"
    },
    {
      "inputs": [
        {
          "internalType": "address",
          "name": "investor",
          "type": "address"
        },
        {
          "internalType": "address",
          "name": "agent",
          "type": "address"
        }
      ],
      "name": "getDelegation",
      "outputs": [
        {
          "components": [
            {
              "internalType": "address",
              "name": "agent",
              "type": "address"
            },
            {
              "internalType": "uint256",
              "name": "maxDrawdownBps",
              "type": "uint256"
            },
            {
              "internalType": "uint256",
              "name": "maxAllocationWei",
              "type": "uint256"
            }
          ],
          "internalType": "struct CapitalVault.DelegationParams",
          "name": "",
          "type": "tuple"
        }
      ],
      "stateMutability": "view",
      "type": "function"
    },
    {
      "inputs": [
        {
          "internalType": "address",
          "name": "",
          "type": "address"
        },
        {
          "internalType": "uint8",
          "name": "",
          "type": "uint8"
        }
      ],
      "name": "investorBalances",
      "outputs": [
        {
          "internalType": "uint256",
          "name": "",
          "type": "uint256"
        }
      ],
      "stateMutability": "view",
      "type": "function"
    },
    {
      "inputs": [],
      "name": "mockAavePool",
      "outputs": [
        {
          "internalType": "address",
          "name": "",
          "type": "address"
        }
      ],
      "stateMutability": "view",
      "type": "function"
    },
    {
      "inputs": [],
      "name": "mockPriceFeed",
      "outputs": [
        {
          "internalType": "address",
          "name": "",
          "type": "address"
        }
      ],
      "stateMutability": "view",
      "type": "function"
    },
    {
      "inputs": [],
      "name": "mockUniswapRouter",
      "outputs": [
        {
          "internalType": "address",
          "name": "",
          "type": "address"
        }
      ],
      "stateMutability": "view",
      "type": "function"
    },
    {
      "inputs": [],
      "name": "owner",
      "outputs": [
        {
          "internalType": "address",
          "name": "",
          "type": "address"
        }
      ],
      "stateMutability": "view",
      "type": "function"
    },
    {
      "inputs": [
        {
          "internalType": "uint8",
          "name": "",
          "type": "uint8"
        }
      ],
      "name": "poolTVL",
      "outputs": [
        {
          "internalType": "uint256",
          "name": "",
          "type": "uint256"
        }
      ],
      "stateMutability": "view",
      "type": "function"
    },
    {
      "inputs": [
        {
          "internalType": "address",
          "name": "agent",
          "type": "address"
        }
      ],
      "name": "registerAgent",
      "outputs": [],
      "stateMutability": "nonpayable",
      "type": "function"
    },
    {
      "inputs": [
        {
          "internalType": "address",
          "name": "",
          "type": "address"
        }
      ],
      "name": "registeredAgents",
      "outputs": [
        {
          "internalType": "bool",
          "name": "",
          "type": "bool"
        }
      ],
      "stateMutability": "view",
      "type": "function"
    },
    {
      "inputs": [],
      "name": "renounceOwnership",
      "outputs": [],
      "stateMutability": "nonpayable",
      "type": "function"
    },
    {
      "inputs": [
        {
          "internalType": "address",
          "name": "_engine",
          "type": "address"
        }
      ],
      "name": "setAllocationEngine",
      "outputs": [],
      "stateMutability": "nonpayable",
      "type": "function"
    },
    {
      "inputs": [
        {
          "internalType": "address",
          "name": "_slashing",
          "type": "address"
        }
      ],
      "name": "setSlashingModule",
      "outputs": [],
      "stateMutability": "nonpayable",
      "type": "function"
    },
    {
      "inputs": [
        {
          "internalType": "address",
          "name": "_router",
          "type": "address"
        },
        {
          "internalType": "address",
          "name": "_aavePool",
          "type": "address"
        },
        {
          "internalType": "address",
          "name": "_priceFeed",
          "type": "address"
        }
      ],
      "name": "setTradingContracts",
      "outputs": [],
      "stateMutability": "nonpayable",
      "type": "function"
    },
    {
      "inputs": [],
      "name": "slashingModule",
      "outputs": [
        {
          "internalType": "address",
          "name": "",
          "type": "address"
        }
      ],
      "stateMutability": "view",
      "type": "function"
    },
    {
      "inputs": [
        {
          "internalType": "address",
          "name": "token",
          "type": "address"
        },
        {
          "internalType": "uint256",
          "name": "amount",
          "type": "uint256"
        }
      ],
      "name": "supplyToAave",
      "outputs": [],
      "stateMutability": "nonpayable",
      "type": "function"
    },
    {
      "inputs": [],
      "name": "totalTVL",
      "outputs": [
        {
          "internalType": "uint256",
          "name": "",
          "type": "uint256"
        }
      ],
      "stateMutability": "view",
      "type": "function"
    },
    {
      "inputs": [
        {
          "internalType": "address",
          "name": "newOwner",
          "type": "address"
        }
      ],
      "name": "transferOwnership",
      "outputs": [],
      "stateMutability": "nonpayable",
      "type": "function"
    },
    {
      "inputs": [
        {
          "internalType": "address[]",
          "name": "agents",
          "type": "address[]"
        },
        {
          "internalType": "uint256[]",
          "name": "weights",
          "type": "uint256[]"
        }
      ],
      "name": "updateWeights",
      "outputs": [],
      "stateMutability": "nonpayable",
      "type": "function"
    },
    {
      "inputs": [
        {
          "internalType": "uint8",
          "name": "",
          "type": "uint8"
        }
      ],
      "name": "volatilityCaps",
      "outputs": [
        {
          "internalType": "uint256",
          "name": "",
          "type": "uint256"
        }
      ],
      "stateMutability": "view",
      "type": "function"
    },
    {
      "inputs": [
        {
          "internalType": "address",
          "name": "token",
          "type": "address"
        },
        {
          "internalType": "uint256",
          "name": "amount",
          "type": "uint256"
        }
      ],
      "name": "withdrawFromAave",
      "outputs": [],
      "stateMutability": "nonpayable",
      "type": "function"
    },
    {
      "stateMutability": "payable",
      "type": "receive"
    }
  ],
  "bytecode": "0x608060405234801561001057600080fd5b50338061003757604051631e4fbdf760e01b81526000600482015260240160405180910390fd5b610040816101af565b5060017f9b779b17422d0df92223018b32b4d1fa46e071723d6817e2486d003becc55f0055600360209081526103207f3617319a054d772f909f7c479a2cebe5066e836a939412e32403c99029b92eff556107087fa15bc60c955c405d20d9149c709e2460f1c2d9a497496a7f46004d1772c3054c556002600052610dac7fc3a24b0501bd2c13a7e57f2db4369ec4c223447539fc0724a9d55ac4a06ebd4d556040805180820182526005815264044414341560dc1b908301528051808201825260018152603160f81b9083015280517f8b73c3c69bb8fe3d512ecc4cf759cc79239f7b179b0ffacaa9a75d522b39400f818401527fa5addf7c8b3aca44d2d35a41b03c1e434a2a6864800c40e0c3fb815e5bc3afd7818301527fc89efdaa54c0f20c7adf612882df0950f5a951637e0307cdcb4c672f298b8bc660608201524660808201523060a0808301919091528251808303909101815260c09091019091528051910120600c556101ff565b600080546001600160a01b038381166001600160a01b0319831681178455604051919092169283917f8be0079c531659141344cd1fd0a4f28419497f9722a3daafe3b4186f6b6457e09190a35050565b611e148061020e6000396000f3fe6080604052600436106102345760003560e01c806374ee82fc1161012e578063c64814dd116100ab578063db1a2cd51161006f578063db1a2cd51461077a578063e7a324dc1461079a578063f2fde38b146107ce578063f6b8ae80146107ee578063f964711b1461081b57600080fd5b8063c64814dd14610682578063c7d48d32146106f8578063ca9959fa14610718578063cb13cd3f14610738578063d73c78601461076557600080fd5b80639a85e1d3116100f25780639a85e1d3146105c85780639ffc9d6e146105e8578063a62f4bc614610620578063a8bc6f7c1461064d578063af2fde1e1461066257600080fd5b806374ee82fc146105085780637fcf0717146105485780637fe35c541461056857806389ae6474146105955780638da5cb5b146105aa57600080fd5b80633644e515116101bc57806361962da31161018057806361962da3146104415780636f71a1aa1461046e578063715018a6146104a65780637234af44146104bb57806374c5ad4f146104e857600080fd5b80633644e515146103bf578063385184a2146103d55780633903df35146103f5578063487ede041461040b5780635b01e3741461042b57600080fd5b80631593a66d116102035780631593a66d1461030a5780631e54d978146103455780632a726a3314610358578063306b9bb9146103785780633264c4e01461039857600080fd5b806303456871146102405780630d5c89ea1461027d57806313b341fd1461029f57806315049a5a146102bf57600080fd5b3661023b57005b600080fd5b34801561024c57600080fd5b50600d54610260906001600160a01b031681565b6040516001600160a01b0390911681526020015b60405180910390f35b34801561028957600080fd5b5061029d61029836600461191b565b61083b565b005b3480156102ab57600080fd5b50600e54610260906001600160a01b031681565b3480156102cb57600080fd5b506102df6102da36600461193d565b610865565b6040805182516001600160a01b03168152602080840151908201529181015190820152606001610274565b34801561031657600080fd5b5061033761032536600461191b565b60066020526000908152604090205481565b604051908152602001610274565b61029d610353366004611981565b6108e4565b34801561036457600080fd5b5061029d61037336600461191b565b610b21565b34801561038457600080fd5b5061029d61039336600461191b565b610c64565b3480156103a457600080fd5b506103ad600081565b60405160ff9091168152602001610274565b3480156103cb57600080fd5b50610337600c5481565b3480156103e157600080fd5b5061029d6103f0366004611a27565b610c90565b34801561040157600080fd5b506103376107d081565b34801561041757600080fd5b5061029d610426366004611a6a565b610cd7565b34801561043757600080fd5b506103376103e881565b34801561044d57600080fd5b5061033761045c366004611a94565b60036020526000908152604090205481565b34801561047a57600080fd5b50610337610489366004611aaf565b600460209081526000928352604080842090915290825290205481565b3480156104b257600080fd5b5061029d610e2e565b3480156104c757600080fd5b506103376104d636600461191b565b60116020526000908152604090205481565b3480156104f457600080fd5b5061029d610503366004611b25565b610e42565b34801561051457600080fd5b5061053861052336600461191b565b60126020526000908152604090205460ff1681565b6040519015158152602001610274565b34801561055457600080fd5b5061029d610563366004611b91565b611032565b34801561057457600080fd5b50610337610583366004611a94565b60086020526000908152604090205481565b3480156105a157600080fd5b506103ad600181565b3480156105b657600080fd5b506000546001600160a01b0316610260565b3480156105d457600080fd5b5061029d6105e3366004611a6a565b61135a565b3480156105f457600080fd5b5061033761060336600461193d565b601060209081526000928352604080842090915290825290205481565b34801561062c57600080fd5b5061033761063b36600461191b565b60076020526000908152604090205481565b34801561065957600080fd5b50610337611490565b34801561066e57600080fd5b50600254610260906001600160a01b031681565b34801561068e57600080fd5b506106d361069d36600461193d565b60096020908152600092835260408084209091529082529020805460018201546002909201546001600160a01b03909116919083565b604080516001600160a01b039094168452602084019290925290820152606001610274565b34801561070457600080fd5b5061029d61071336600461191b565b61151b565b34801561072457600080fd5b50600f54610260906001600160a01b031681565b34801561074457600080fd5b5061033761075336600461191b565b60056020526000908152604090205481565b34801561077157600080fd5b506103ad600281565b34801561078657600080fd5b50600154610260906001600160a01b031681565b3480156107a657600080fd5b506103377f26c4417ddeccd4bf1f3611775a90b7aac5fb5b65365d6004660f13376fca398481565b3480156107da57600080fd5b5061029d6107e936600461191b565b611545565b3480156107fa57600080fd5b5061033761080936600461191b565b60136020526000908152604090205481565b34801561082757600080fd5b5061029d610836366004611a6a565b611580565b6108436117a0565b600180546001600160a01b0319166001600160a01b0392909216919091179055565b610892604051806060016040528060006001600160a01b0316815260200160008152602001600081525090565b506001600160a01b038083166000908152600960209081526040808320858516845282529182902082516060810184528154909416845260018101549184019190915260020154908201525b92915050565b6108ec6117cd565b600260ff871611156109345760405162461bcd60e51b815260206004820152600c60248201526b125b9d985b1a59081c1bdbdb60a21b60448201526064015b60405180910390fd5b6000341161097d5760405162461bcd60e51b8152602060048201526016602482015275045544820616d6f756e74206d757374206265203e20360541b604482015260640161092b565b33600090815260046020908152604080832060ff8a168452909152812080543492906109aa908490611bda565b909155505060ff8616600090815260086020526040812080543492906109d1908490611bda565b9091555050604080516060810182526001600160a01b03878116808352602080840189815284860189815233600081815260098552888120958152948452878520965187546001600160a01b03191696169590951786559051600186015551600290940193909355600b83528381209181529152205460ff16610aab576001600160a01b0385166000818152600b6020908152604080832033808552908352818420805460ff19166001908117909155948452600a8352908320805494850181558352912090910180546001600160a01b03191690911790555b6040805160ff88168152346020820152908101859052606081018490526001600160a01b0386169033907f5a3864fc15cbc061a5823f8e7063456440516ad5aab5036e1648702610fcb7209060800160405180910390a3610b196001600080516020611dbf83398151915255565b505050505050565b6002546001600160a01b03163314610b725760405162461bcd60e51b81526020600482015260146024820152734f6e6c7920736c617368696e67206d6f64756c6560601b604482015260640161092b565b6001600160a01b03811660009081526006602090815260408083205460079092528220549091829003610ba457505050565b600082610bb18382611bed565b610bbd90612710611c00565b610bc79190611c17565b90506107d0811115610c5d576001600160a01b03841660008181526005602052604080822091909155517fe433b6ff71631e3ae26cd6664b65bae8000ca5d9653f5913b95e11c29639bc2f90610c209084815260200190565b60405180910390a26040516001600160a01b038516907f78f44709c548c69c9dcf62e665179a7a9cad4c27463b6e93d05cf86b9acf7fa990600090a25b5050505b50565b610c6c6117a0565b6001600160a01b03166000908152601260205260409020805460ff19166001179055565b610c986117a0565b600d80546001600160a01b039485166001600160a01b031991821617909155600e805493851693821693909317909255600f8054919093169116179055565b3360009081526012602052604090205460ff16610d065760405162461bcd60e51b815260040161092b90611c39565b610d0e6117cd565b600e54604051631a4ca37b60e21b81526001600160a01b03848116600483015260248201849052306044830152909116906369328dec90606401600060405180830381600087803b158015610d6257600080fd5b505af1158015610d76573d6000803e3d6000fd5b50503360009081526010602090815260408083206001600160a01b038816845290915281208054859450909250610dae908490611bda565b9091555050604080516000815260208101839052429181019190915260806060820181905260089082015267776974686472617760c01b60a08201526001600160a01b038316903390600080516020611d9f8339815191529060c0015b60405180910390a3610e2a6001600080516020611dbf83398151915255565b5050565b610e366117a0565b610e4060006117e9565b565b6001546001600160a01b03163314610e955760405162461bcd60e51b81526020600482015260166024820152754f6e6c7920616c6c6f636174696f6e20656e67696e6560501b604482015260640161092b565b828114610ed65760405162461bcd60e51b815260206004820152600f60248201526e098cadccee8d040dad2e6dac2e8c6d608b1b604482015260640161092b565b6000805b82811015610f1a57838382818110610ef457610ef4611c69565b9050602002013582610f069190611bda565b915080610f1281611c7f565b915050610eda565b5080670de0b6b3a764000014610f725760405162461bcd60e51b815260206004820152601860248201527f57656967687473206d7573742073756d20746f20316531380000000000000000604482015260640161092b565b60005b84811015610fed57838382818110610f8f57610f8f611c69565b9050602002013560056000888885818110610fac57610fac611c69565b9050602002016020810190610fc1919061191b565b6001600160a01b0316815260208101919091526040016000205580610fe581611c7f565b915050610f75565b507f7f9d3b855249ef24ed9613191786a1fc8d2afafdc45ab1ec9c1a051589d7837c858585856040516110239493929190611c98565b60405180910390a15050505050565b3360009081526012602052604090205460ff166110615760405162461bcd60e51b815260040161092b90611c39565b6110696117cd565b600061107433611839565b336000908152601360205260408120549192509082116110955760006110af565b336000908152601360205260409020546110af9083611bed565b9050808411156110fa5760405162461bcd60e51b815260206004820152601660248201527504578636565647320616c6c6f636174696f6e206361760541b604482015260640161092b565b8347101561114a5760405162461bcd60e51b815260206004820152601a60248201527f496e73756666696369656e74207661756c742062616c616e6365000000000000604482015260640161092b565b600d5460405163770cea9b60e11b8152600481018590526001600160a01b038781166024830152306044830152600092169063ee19d53690879060640160206040518083038185885af11580156111a5573d6000803e3d6000fd5b50505050506040513d601f19601f820116820180604052508101906111ca9190611d14565b3360009081526010602090815260408083206001600160a01b038b168452909152812080549293508392909190611202908490611bda565b90915550503360009081526013602052604081208054879290611226908490611bda565b9091555050600f546040516341976e0960e01b81526001600160a01b03888116600483015260009216906341976e0990602401602060405180830381865afa158015611276573d6000803e3d6000fd5b505050506040513d601f19601f8201168201806040525081019061129a9190611d14565b9050856305f5e1006112ac8385611c00565b6112b69190611c17565b6112c09190611d2d565b33600090815260116020526040812080549091906112df908490611d54565b909155505060408051878152602081018490524281830152608060608201819052600490820152630737761760e41b60a082015290516001600160a01b038916913391600080516020611d9f8339815191529181900360c00190a3505050506113556001600080516020611dbf83398151915255565b505050565b3360009081526012602052604090205460ff166113895760405162461bcd60e51b815260040161092b90611c39565b6113916117cd565b600e54604051636c665a5560e01b81526001600160a01b0384811660048301526024820184905230604483015290911690636c665a5590606401600060405180830381600087803b1580156113e557600080fd5b505af11580156113f9573d6000803e3d6000fd5b50503360009081526010602090815260408083206001600160a01b038816845290915281208054859450909250611431908490611bda565b9091555050604080516000815260208101839052429181019190915260806060820181905260069082015265626f72726f7760d01b60a08201526001600160a01b038316903390600080516020611d9f8339815191529060c001610e0b565b60086020527f6add646517a5b0f6793cd5891b7937d28a5b2981a5d88ebc7cd776088fea9041547fad67d757c34507f157cacfa2e3153e9f260a2244f30428821be7be64587ac55f5460008080527f5eff886ea0ce6ca488a3d6e336d6c0f75f46d19b42c06ce5ee98e42c96d256c75490929161150c91611bda565b6115169190611bda565b905090565b6115236117a0565b600280546001600160a01b0319166001600160a01b0392909216919091179055565b61154d6117a0565b6001600160a01b03811661157757604051631e4fbdf760e01b81526000600482015260240161092b565b610c61816117e9565b3360009081526012602052604090205460ff166115af5760405162461bcd60e51b815260040161092b90611c39565b6115b76117cd565b3360009081526010602090815260408083206001600160a01b038616845290915290205481111561162a5760405162461bcd60e51b815260206004820152601a60248201527f496e73756666696369656e7420746f6b656e2062616c616e6365000000000000604482015260640161092b565b600e5460405163095ea7b360e01b81526001600160a01b039182166004820152602481018390529083169063095ea7b3906044016020604051808303816000875af115801561167d573d6000803e3d6000fd5b505050506040513d601f19601f820116820180604052508101906116a19190611d7c565b50600e54604051638b2a4df560e01b81526001600160a01b0384811660048301526024820184905230604483015290911690638b2a4df590606401600060405180830381600087803b1580156116f657600080fd5b505af115801561170a573d6000803e3d6000fd5b50503360009081526010602090815260408083206001600160a01b038816845290915281208054859450909250611742908490611bed565b90915550506040805182815260006020820152429181019190915260806060820181905260069082015265737570706c7960d01b60a08201526001600160a01b038316903390600080516020611d9f8339815191529060c001610e0b565b6000546001600160a01b03163314610e405760405163118cdaa760e01b815233600482015260240161092b565b6117d56118cf565b6002600080516020611dbf83398151915255565b600080546001600160a01b038381166001600160a01b0319831681178455604051919092169283917f8be0079c531659141344cd1fd0a4f28419497f9722a3daafe3b4186f6b6457e09190a35050565b6001600160a01b0381166000908152600a60205260408120815b81548110156118c8576009600083838154811061187257611872611c69565b60009182526020808320909101546001600160a01b03908116845283820194909452604092830182209388168252929092529020600201546118b49084611bda565b9250806118c081611c7f565b915050611853565b5050919050565b600080516020611dbf83398151915254600203610e4057604051633ee5aeb560e01b815260040160405180910390fd5b80356001600160a01b038116811461191657600080fd5b919050565b60006020828403121561192d57600080fd5b611936826118ff565b9392505050565b6000806040838503121561195057600080fd5b611959836118ff565b9150611967602084016118ff565b90509250929050565b803560ff8116811461191657600080fd5b60008060008060008060a0878903121561199a57600080fd5b6119a387611970565b95506119b1602088016118ff565b94506040870135935060608701359250608087013567ffffffffffffffff808211156119dc57600080fd5b818901915089601f8301126119f057600080fd5b8135818111156119ff57600080fd5b8a6020828501011115611a1157600080fd5b6020830194508093505050509295509295509295565b600080600060608486031215611a3c57600080fd5b611a45846118ff565b9250611a53602085016118ff565b9150611a61604085016118ff565b90509250925092565b60008060408385031215611a7d57600080fd5b611a86836118ff565b946020939093013593505050565b600060208284031215611aa657600080fd5b61193682611970565b60008060408385031215611ac257600080fd5b611acb836118ff565b915061196760208401611970565b60008083601f840112611aeb57600080fd5b50813567ffffffffffffffff811115611b0357600080fd5b6020830191508360208260051b8501011115611b1e57600080fd5b9250929050565b60008060008060408587031215611b3b57600080fd5b843567ffffffffffffffff80821115611b5357600080fd5b611b5f88838901611ad9565b90965094506020870135915080821115611b7857600080fd5b50611b8587828801611ad9565b95989497509550505050565b600080600060608486031215611ba657600080fd5b611baf846118ff565b95602085013595506040909401359392505050565b634e487b7160e01b600052601160045260246000fd5b808201808211156108de576108de611bc4565b818103818111156108de576108de611bc4565b80820281158282048414176108de576108de611bc4565b600082611c3457634e487b7160e01b600052601260045260246000fd5b500490565b602080825260169082015275139bdd0818481c9959da5cdd195c9959081859d95b9d60521b604082015260600190565b634e487b7160e01b600052603260045260246000fd5b600060018201611c9157611c91611bc4565b5060010190565b6040808252810184905260008560608301825b87811015611cd9576001600160a01b03611cc4846118ff565b16825260209283019290910190600101611cab565b5083810360208501528481526001600160fb1b03851115611cf957600080fd5b8460051b915081866020830137016020019695505050505050565b600060208284031215611d2657600080fd5b5051919050565b8181036000831280158383131683831282161715611d4d57611d4d611bc4565b5092915050565b8082018281126000831280158216821582161715611d7457611d74611bc4565b505092915050565b600060208284031215611d8e57600080fd5b8151801515811461193657600080fdfeb35c1f645a79f2d00a3fc03be48a951bfb787ae6c9e6ef2e08c0476e5d7bc90c9b779b17422d0df92223018b32b4d1fa46e071723d6817e2486d003becc55f00a264697066735822122092b6ed512ac3568b68615f69148dea684078e247d7af320906133c12bccce32164736f6c63430008140033",
  "linkReferences": {},
  "deployedLinkReferences": {}
}