{
  "_format": "hh-sol-artifact-1",
  "contractName": "SlashingModule",
  "sourceName": "src/SlashingModule.sol",
  "abi": [
    {
      "inputs": [
        {
          "internalType": "address",
          "name": "_vault",
          "type": "address"
        },
        {
          "internalType": "address",
          "name": "_registry",
          "type": "address"
        }
      ],
      "stateMutability": "nonpayable",
      "type": "constructor"
    },
    {
      "inputs": [
        {
          "internalType": "address",
          "name": "owner",
          "type": "address"
        }
      ],
      "name": "OwnableInvalidOwner",
      "type": "error"
    },
    {
      "inputs": [
        {
          "internalType": "address",
          "name": "account",
          "type": "address"
        }
      ],
      "name": "OwnableUnauthorizedAccount",
      "type": "error"
    },
    {
      "anonymous": false,
      "inputs": [
        {
          "indexed": true,
          "internalType": "address",
          "name": "agent",
          "type": "address"
        },
        {
          "indexed": false,
          "internalType": "uint256",
          "name": "drawdownBps",
          "type": "uint256"
        }
      ],
      "name": "DrawdownReported",
      "type": "event"
    },
    {
      "anonymous": false,
      "inputs": [
        {
          "indexed": true,
          "internalType": "address",
          "name": "previousOwner",
          "type": "address"
        },
        {
          "indexed": true,
          "internalType": "address",
          "name": "newOwner",
          "type": "address"
        }
      ],
      "name": "OwnershipTransferred",
      "type": "event"
    },
    {
      "anonymous": false,
      "inputs": [
        {
          "indexed": true,
          "internalType": "address",
          "name": "agent",
          "type": "address"
        },
        {
          "indexed": false,
          "internalType": "uint256",
          "name": "slashBps",
          "type": "uint256"
        }
      ],
      "name": "SlashExecuted",
      "type": "event"
    },
    {
      "anonymous": false,
      "inputs": [
        {
          "indexed": false,
          "internalType": "uint256",
          "name": "newThreshold",
          "type": "uint256"
        }
      ],
      "name": "ThresholdUpdated",
      "type": "event"
    },
    {
      "inputs": [
        {
          "internalType": "address",
          "name": "",
          "type": "address"
        }
      ],
      "name": "currentValues",
      "outputs": [
        {
          "internalType": "uint256",
          "name": "",
          "type": "uint256"
        }
      ],
      "stateMutability": "view",
      "type": "function"
    },
    {
      "inputs": [],
      "name": "drawdownThresholdBps",
      "outputs": [
        {
          "internalType": "uint256",
          "name": "",
          "type": "uint256"
        }
      ],
      "stateMutability": "view",
      "type": "function"
    },
    {
      "inputs": [
        {
          "internalType": "address",
          "name": "agent",
          "type": "address"
        }
      ],
      "name": "getSlashHistory",
      "outputs": [
        {
          "components": [
            {
              "internalType": "uint256",
              "name": "timestamp",
              "type": "uint256"
            },
            {
              "internalType": "uint256",
              "name": "drawdownBps",
              "type": "uint256"
            },
            {
              "internalType": "uint256",
              "name": "slashedBps",
              "type": "uint256"
            }
          ],
          "internalType": "struct SlashingModule.SlashRecord[]",
          "name": "",
          "type": "tuple[]"
        }
      ],
      "stateMutability": "view",
      "type": "function"
    },
    {
      "inputs": [],
      "name": "maxSlashBps",
      "outputs": [
        {
          "internalType": "uint256",
          "name": "",
          "type": "uint256"
        }
      ],
      "stateMutability": "view",
      "type": "function"
    },
    {
      "inputs": [],
      "name": "owner",
      "outputs": [
        {
          "internalType": "address",
          "name": "",
          "type": "address"
        }
      ],
      "stateMutability": "view",
      "type": "function"
    },
    {
      "inputs": [
        {
          "internalType": "address",
          "name": "",
          "type": "address"
        }
      ],
      "name": "peakValues",
      "outputs": [
        {
          "internalType": "uint256",
          "name": "",
          "type": "uint256"
        }
      ],
      "stateMutability": "view",
      "type": "function"
    },
    {
      "inputs": [],
      "name": "registry",
      "outputs": [
        {
          "internalType": "address",
          "name": "",
          "type": "address"
        }
      ],
      "stateMutability": "view",
      "type": "function"
    },
    {
      "inputs": [],
      "name": "renounceOwnership",
      "outputs": [],
      "stateMutability": "nonpayable",
      "type": "function"
    },
    {
      "inputs": [
        {
          "internalType": "address",
          "name": "agent",
          "type": "address"
        },
        {
          "internalType": "uint256",
          "name": "currentValue",
          "type": "uint256"
        }
      ],
      "name": "reportPerformance",
      "outputs": [],
      "stateMutability": "nonpayable",
      "type": "function"
    },
    {
      "inputs": [
        {
          "internalType": "uint256",
          "name": "_thresholdBps",
          "type": "uint256"
        }
      ],
      "name": "setThreshold",
      "outputs": [],
      "stateMutability": "nonpayable",
      "type": "function"
    },
    {
      "inputs": [
        {
          "internalType": "address",
          "name": "",
          "type": "address"
        },
        {
          "internalType": "uint256",
          "name": "",
          "type": "uint256"
        }
      ],
      "name": "slashHistory",
      "outputs": [
        {
          "internalType": "uint256",
          "name": "timestamp",
          "type": "uint256"
        },
        {
          "internalType": "uint256",
          "name": "drawdownBps",
          "type": "uint256"
        },
        {
          "internalType": "uint256",
          "name": "slashedBps",
          "type": "uint256"
        }
      ],
      "stateMutability": "view",
      "type": "function"
    },
    {
      "inputs": [
        {
          "internalType": "address",
          "name": "newOwner",
          "type": "address"
        }
      ],
      "name": "transferOwnership",
      "outputs": [],
      "stateMutability": "nonpayable",
      "type": "function"
    },
    {
      "inputs": [],
      "name": "vault",
      "outputs": [
        {
          "internalType": "address",
          "name": "",
          "type": "address"
        }
      ],
      "stateMutability": "view",
      "type": "function"
    }
  ],
  "bytecode": "0x60806040526107d060035561138860045534801561001c57600080fd5b506040516109b53803806109b583398101604081905261003b91610108565b338061006157604051631e4fbdf760e01b81526000600482015260240160405180910390fd5b61006a8161009c565b50600180546001600160a01b039384166001600160a01b0319918216179091556002805492909316911617905561013b565b600080546001600160a01b038381166001600160a01b0319831681178455604051919092169283917f8be0079c531659141344cd1fd0a4f28419497f9722a3daafe3b4186f6b6457e09190a35050565b80516001600160a01b038116811461010357600080fd5b919050565b6000806040838503121561011b57600080fd5b610124836100ec565b9150610132602084016100ec565b90509250929050565b61086b8061014a6000396000f3fe608060405234801561001057600080fd5b50600436106100cf5760003560e01c8063917616261161008c578063ab6e48db11610066578063ab6e48db146101ca578063bc9c6d9d146101d3578063f2fde38b146101f3578063fbfa77cf1461020657600080fd5b80639176162614610177578063960bfe0414610197578063a134d63a146101aa57600080fd5b806315fca178146100d45780635fedcd54146100f0578063715018a6146101055780637b1039991461010d5780638da5cb5b146101385780638e58021314610149575b600080fd5b6100dd60035481565b6040519081526020015b60405180910390f35b6101036100fe36600461070f565b610219565b005b61010361032f565b600254610120906001600160a01b031681565b6040516001600160a01b0390911681526020016100e7565b6000546001600160a01b0316610120565b61015c61015736600461070f565b610343565b604080519384526020840192909252908201526060016100e7565b6100dd610185366004610739565b60076020526000908152604090205481565b6101036101a536600461075b565b610385565b6101bd6101b8366004610739565b61041c565b6040516100e79190610774565b6100dd60045481565b6100dd6101e1366004610739565b60066020526000908152604090205481565b610103610201366004610739565b6104af565b600154610120906001600160a01b031681565b6102216104ed565b6001600160a01b038216600090815260066020526040902054158061025d57506001600160a01b03821660009081526006602052604090205481115b1561027e576001600160a01b03821660009081526006602052604090208190555b6001600160a01b038216600090815260076020908152604080832084905560069091529020548181111561032a576000816102b984826107e3565b6102c5906127106107fc565b6102cf9190610813565b9050836001600160a01b03167fe528218490c4fbfe40d2c3b11876de7ff83f2287488cbd8a19196e31e784cd268260405161030c91815260200190565b60405180910390a260035481111561032857610328848261051a565b505b505050565b6103376104ed565b61034160006106a3565b565b6005602052816000526040600020818154811061035f57600080fd5b600091825260209091206003909102018054600182015460029092015490935090915083565b61038d6104ed565b6101f481101580156103a157506113888111155b6103e15760405162461bcd60e51b815260206004820152600c60248201526b4f7574206f662072616e676560a01b60448201526064015b60405180910390fd5b60038190556040518181527fadfa8ecb21b6962ebcd0adbd9ab985b7b4c5b5eb3b0dead683171565c7bfe1719060200160405180910390a150565b6001600160a01b0381166000908152600560209081526040808320805482518185028101850190935280835260609492939192909184015b828210156104a45783829060005260206000209060030201604051806060016040529081600082015481526020016001820154815260200160028201548152505081526020019060010190610454565b505050509050919050565b6104b76104ed565b6001600160a01b0381166104e157604051631e4fbdf760e01b8152600060048201526024016103d8565b6104ea816106a3565b50565b6000546001600160a01b031633146103415760405163118cdaa760e01b81523360048201526024016103d8565b60006003548261052a91906107e3565b90506000600454821161053d5781610541565b6004545b6001600160a01b03858116600081815260056020908152604080832081516060810183524281528084018b815281840189815283546001808201865594885295909620915160039095029091019384555190830155915160029182015554905163348551f360e11b815260048101929092526024820184905292935091169063690aa3e690604401600060405180830381600087803b1580156105e357600080fd5b505af11580156105f7573d6000803e3d6000fd5b5050600154604051632a726a3360e01b81526001600160a01b0388811660048301529091169250632a726a339150602401600060405180830381600087803b15801561064257600080fd5b505af1158015610656573d6000803e3d6000fd5b50505050836001600160a01b03167fff07decce659288ee18dac2f89976c6c1c1492729e4bba4b5b1a7b086db8e58f8260405161069591815260200190565b60405180910390a250505050565b600080546001600160a01b038381166001600160a01b0319831681178455604051919092169283917f8be0079c531659141344cd1fd0a4f28419497f9722a3daafe3b4186f6b6457e09190a35050565b80356001600160a01b038116811461070a57600080fd5b919050565b6000806040838503121561072257600080fd5b61072b836106f3565b946020939093013593505050565b60006020828403121561074b57600080fd5b610754826106f3565b9392505050565b60006020828403121561076d57600080fd5b5035919050565b602080825282518282018190526000919060409081850190868401855b828110156107c05781518051855286810151878601528501518585015260609093019290850190600101610791565b5091979650505050505050565b634e487b7160e01b600052601160045260246000fd5b818103818111156107f6576107f66107cd565b92915050565b80820281158282048414176107f6576107f66107cd565b60008261083057634e487b7160e01b600052601260045260246000fd5b50049056fea26469706673582212206cef9abe5136276c57b86b737b0e1e63372b90b995934190ae9a4c670ed1992b64736f6c63430008140033",
  "linkReferences": {},
  "deployedLinkReferences": {}
}