{
  "_format": "hh-sol-artifact-1",
  "contractName": "MockPriceFeed",
  "sourceName": "src/MockPriceFeed.sol",
  "abi": [
    {
      "inputs": [
        {
          "internalType": "address[]",
          "name": "_tokens",
          "type": "address[]"
        },
        {
          "internalType": "uint256[]",
          "name": "_initialPrices",
          "type": "uint256[]"
        }
      ],
      "stateMutability": "nonpayable",
      "type": "constructor"
    },
    {
      "anonymous": false,
      "inputs": [
        {
          "indexed": false,
          "internalType": "address[]",
          "name": "tokens",
          "type": "address[]"
        },
        {
          "indexed": false,
          "internalType": "uint256[]",
          "name": "newPrices",
          "type": "uint256[]"
        }
      ],
      "name": "PricesUpdated",
      "type": "event"
    },
    {
      "inputs": [
        {
          "internalType": "address",
          "name": "token",
          "type": "address"
        }
      ],
      "name": "getPrice",
      "outputs": [
        {
          "internalType": "uint256",
          "name": "",
          "type": "uint256"
        }
      ],
      "stateMutability": "view",
      "type": "function"
    },
    {
      "inputs": [
        {
          "internalType": "address",
          "name": "",
          "type": "address"
        }
      ],
      "name": "initialPrices",
      "outputs": [
        {
          "internalType": "uint256",
          "name": "",
          "type": "uint256"
        }
      ],
      "stateMutability": "view",
      "type": "function"
    },
    {
      "inputs": [
        {
          "internalType": "address",
          "name": "",
          "type": "address"
        }
      ],
      "name": "prices",
      "outputs": [
        {
          "internalType": "uint256",
          "name": "",
          "type": "uint256"
        }
      ],
      "stateMutability": "view",
      "type": "function"
    },
    {
      "inputs": [],
      "name": "tokenCount",
      "outputs": [
        {
          "internalType": "uint256",
          "name": "",
          "type": "uint256"
        }
      ],
      "stateMutability": "view",
      "type": "function"
    },
    {
      "inputs": [
        {
          "internalType": "uint256",
          "name": "",
          "type": "uint256"
        }
      ],
      "name": "tokens",
      "outputs": [
        {
          "internalType": "address",
          "name": "",
          "type": "address"
        }
      ],
      "stateMutability": "view",
      "type": "function"
    },
    {
      "inputs": [],
      "name": "updatePrices",
      "outputs": [],
      "stateMutability": "nonpayable",
      "type": "function"
    }
  ],
  "bytecode": "0x60806040523480156200001157600080fd5b50604051620009b4380380620009b48339810160408190526200003491620002a1565b80518251146200007c5760405162461bcd60e51b815260206004820152600f60248201526e098cadccee8d040dad2e6dac2e8c6d608b1b604482015260640160405180910390fd5b60005b8251811015620001b6576002838281518110620000a057620000a06200037f565b60209081029190910181015182546001810184556000938452919092200180546001600160a01b0319166001600160a01b039092169190911790558151829082908110620000f257620000f26200037f565b60200260200101516000808584815181106200011257620001126200037f565b60200260200101516001600160a01b03166001600160a01b03168152602001908152602001600020819055508181815181106200015357620001536200037f565b6020026020010151600160008584815181106200017457620001746200037f565b60200260200101516001600160a01b03166001600160a01b03168152602001908152602001600020819055508080620001ad9062000395565b9150506200007f565b505050620003bd565b634e487b7160e01b600052604160045260246000fd5b604051601f8201601f191681016001600160401b0381118282101715620002005762000200620001bf565b604052919050565b60006001600160401b03821115620002245762000224620001bf565b5060051b60200190565b600082601f8301126200024057600080fd5b8151602062000259620002538362000208565b620001d5565b82815260059290921b840181019181810190868411156200027957600080fd5b8286015b848110156200029657805183529183019183016200027d565b509695505050505050565b60008060408385031215620002b557600080fd5b82516001600160401b0380821115620002cd57600080fd5b818501915085601f830112620002e257600080fd5b81516020620002f5620002538362000208565b82815260059290921b840181019181810190898411156200031557600080fd5b948201945b838610156200034c5785516001600160a01b03811681146200033c5760008081fd5b825294820194908201906200031a565b918801519196509093505050808211156200036657600080fd5b5062000375858286016200022e565b9150509250929050565b634e487b7160e01b600052603260045260246000fd5b600060018201620003b657634e487b7160e01b600052601160045260246000fd5b5060010190565b6105e780620003cd6000396000f3fe608060405234801561001057600080fd5b50600436106100625760003560e01c806341976e091461006757806349dd1262146100a35780634f64b2be146100ad5780639f181b5e146100d8578063b0cc896c146100e0578063cfed246b14610100575b600080fd5b610090610075366004610379565b6001600160a01b031660009081526020819052604090205490565b6040519081526020015b60405180910390f35b6100ab610120565b005b6100c06100bb3660046103a9565b61034f565b6040516001600160a01b03909116815260200161009a565b600254610090565b6100906100ee366004610379565b60016020526000908152604090205481565b61009061010e366004610379565b60006020819052908152604090205481565b60025460009067ffffffffffffffff81111561013e5761013e6103c2565b604051908082528060200260200182016040528015610167578160200160208202803683370190505b50905060005b6002548110156103115760006002828154811061018c5761018c6103d8565b6000918252602080832091909101546040805142938101939093524490830152606081811b6bffffffffffffffffffffffff191690830152607482018590526001600160a01b0316925060940160408051601f19818403018152919052805160209091012090506000620f4240610206621e848184610404565b610210919061042e565b6001600160a01b03841660009081526020818152604080832054600190925282205492935091906305f5e1006102468585610455565b610250919061048b565b61025a90846104b9565b90506000811215610269575060005b80600060646102798560326104e1565b61028391906104f8565b9050600060646102948660c86104e1565b61029e91906104f8565b9050818310156102ac578192505b808311156102b8578092505b6001600160a01b03891660009081526020819052604090208390558a5183908c908c9081106102e9576102e96103d8565b60200260200101818152505050505050505050505080806103099061050c565b91505061016d565b507f2c3de3c6fcd19d1e27b42f6398a78090dbcaf464406c01869429369a4087638e600282604051610344929190610525565b60405180910390a150565b6002818154811061035f57600080fd5b6000918252602090912001546001600160a01b0316905081565b60006020828403121561038b57600080fd5b81356001600160a01b03811681146103a257600080fd5b9392505050565b6000602082840312156103bb57600080fd5b5035919050565b634e487b7160e01b600052604160045260246000fd5b634e487b7160e01b600052603260045260246000fd5b634e487b7160e01b600052601260045260246000fd5b600082610413576104136103ee565b500690565b634e487b7160e01b600052601160045260246000fd5b818103600083128015838313168383128216171561044e5761044e610418565b5092915050565b80820260008212600160ff1b8414161561047157610471610418565b818105831482151761048557610485610418565b92915050565b60008261049a5761049a6103ee565b600160ff1b8214600019841416156104b4576104b4610418565b500590565b80820182811260008312801582168215821617156104d9576104d9610418565b505092915050565b808202811582820484141761048557610485610418565b600082610507576105076103ee565b500490565b60006001820161051e5761051e610418565b5060010190565b6000604082016040835280855480835260608501915086600052602092508260002060005b8281101561056f5781546001600160a01b03168452928401926001918201910161054a565b5050508381038285015284518082528583019183019060005b818110156105a457835183529284019291840191600101610588565b509097965050505050505056fea26469706673582212202629369a06537902abfeeeb73520774b3a08c3251858a68869d97d473522d9ae64736f6c63430008140033",
  "linkReferences": {},
  "deployedLinkReferences": {}
}