{
  "_format": "hh-sol-artifact-1",
  "contractName": "AgentRegistry",
  "sourceName": "src/AgentRegistry.sol",
  "abi": [
    {
      "inputs": [
        {
          "internalType": "address",
          "name": "_stakeToken",
          "type": "address"
        }
      ],
      "stateMutability": "nonpayable",
      "type": "constructor"
    },
    {
      "inputs": [
        {
          "internalType": "address",
          "name": "owner",
          "type": "address"
        }
      ],
      "name": "OwnableInvalidOwner",
      "type": "error"
    },
    {
      "inputs": [
        {
          "internalType": "address",
          "name": "account",
          "type": "address"
        }
      ],
      "name": "OwnableUnauthorizedAccount",
      "type": "error"
    },
    {
      "inputs": [],
      "name": "ReentrancyGuardReentrantCall",
      "type": "error"
    },
    {
      "anonymous": false,
      "inputs": [
        {
          "indexed": true,
          "internalType": "address",
          "name": "agent",
          "type": "address"
        }
      ],
      "name": "AgentActivated",
      "type": "event"
    },
    {
      "anonymous": false,
      "inputs": [
        {
          "indexed": true,
          "internalType": "address",
          "name": "agent",
          "type": "address"
        }
      ],
      "name": "AgentDeregistered",
      "type": "event"
    },
    {
      "anonymous": false,
      "inputs": [
        {
          "indexed": true,
          "internalType": "address",
          "name": "agent",
          "type": "address"
        },
        {
          "indexed": false,
          "internalType": "uint8",
          "name": "riskPool",
          "type": "uint8"
        },
        {
          "indexed": false,
          "internalType": "uint256",
          "name": "stake",
          "type": "uint256"
        }
      ],
      "name": "AgentRegistered",
      "type": "event"
    },
    {
      "anonymous": false,
      "inputs": [
        {
          "indexed": true,
          "internalType": "address",
          "name": "agent",
          "type": "address"
        },
        {
          "indexed": false,
          "internalType": "uint256",
          "name": "slashedAmount",
          "type": "uint256"
        }
      ],
      "name": "AgentSlashed",
      "type": "event"
    },
    {
      "anonymous": false,
      "inputs": [
        {
          "indexed": true,
          "internalType": "address",
          "name": "previousOwner",
          "type": "address"
        },
        {
          "indexed": true,
          "internalType": "address",
          "name": "newOwner",
          "type": "address"
        }
      ],
      "name": "OwnershipTransferred",
      "type": "event"
    },
    {
      "anonymous": false,
      "inputs": [
        {
          "indexed": true,
          "internalType": "address",
          "name": "agent",
          "type": "address"
        },
        {
          "indexed": false,
          "internalType": "uint256",
          "name": "amount",
          "type": "uint256"
        }
      ],
      "name": "StakeIncreased",
      "type": "event"
    },
    {
      "inputs": [],
      "name": "MIN_STAKE",
      "outputs": [
        {
          "internalType": "uint256",
          "name": "",
          "type": "uint256"
        }
      ],
      "stateMutability": "view",
      "type": "function"
    },
    {
      "inputs": [],
      "name": "SIMULATION_PERIOD",
      "outputs": [
        {
          "internalType": "uint256",
          "name": "",
          "type": "uint256"
        }
      ],
      "stateMutability": "view",
      "type": "function"
    },
    {
      "inputs": [
        {
          "internalType": "address",
          "name": "agentAddress",
          "type": "address"
        }
      ],
      "name": "activateAgent",
      "outputs": [],
      "stateMutability": "nonpayable",
      "type": "function"
    },
    {
      "inputs": [
        {
          "internalType": "uint256",
          "name": "",
          "type": "uint256"
        }
      ],
      "name": "agentList",
      "outputs": [
        {
          "internalType": "address",
          "name": "",
          "type": "address"
        }
      ],
      "stateMutability": "view",
      "type": "function"
    },
    {
      "inputs": [
        {
          "internalType": "address",
          "name": "",
          "type": "address"
        }
      ],
      "name": "agents",
      "outputs": [
        {
          "internalType": "address",
          "name": "owner",
          "type": "address"
        },
        {
          "internalType": "bytes32",
          "name": "strategyHash",
          "type": "bytes32"
        },
        {
          "internalType": "uint256",
          "name": "stakedAmount",
          "type": "uint256"
        },
        {
          "internalType": "uint256",
          "name": "registeredAt",
          "type": "uint256"
        },
        {
          "internalType": "uint256",
          "name": "simulationEnds",
          "type": "uint256"
        },
        {
          "internalType": "enum AgentRegistry.AgentStatus",
          "name": "status",
          "type": "uint8"
        },
        {
          "internalType": "uint8",
          "name": "riskPool",
          "type": "uint8"
        }
      ],
      "stateMutability": "view",
      "type": "function"
    },
    {
      "inputs": [],
      "name": "getActiveAgents",
      "outputs": [
        {
          "internalType": "address[]",
          "name": "",
          "type": "address[]"
        }
      ],
      "stateMutability": "view",
      "type": "function"
    },
    {
      "inputs": [],
      "name": "owner",
      "outputs": [
        {
          "internalType": "address",
          "name": "",
          "type": "address"
        }
      ],
      "stateMutability": "view",
      "type": "function"
    },
    {
      "inputs": [
        {
          "internalType": "address",
          "name": "agentAddress",
          "type": "address"
        },
        {
          "internalType": "bytes32",
          "name": "strategyHash",
          "type": "bytes32"
        },
        {
          "internalType": "uint8",
          "name": "riskPool",
          "type": "uint8"
        },
        {
          "internalType": "uint256",
          "name": "stakeAmount",
          "type": "uint256"
        }
      ],
      "name": "registerAgent",
      "outputs": [],
      "stateMutability": "nonpayable",
      "type": "function"
    },
    {
      "inputs": [],
      "name": "renounceOwnership",
      "outputs": [],
      "stateMutability": "nonpayable",
      "type": "function"
    },
    {
      "inputs": [
        {
          "internalType": "address",
          "name": "agentAddress",
          "type": "address"
        },
        {
          "internalType": "uint256",
          "name": "slashBps",
          "type": "uint256"
        }
      ],
      "name": "slashAgent",
      "outputs": [],
      "stateMutability": "nonpayable",
      "type": "function"
    },
    {
      "inputs": [],
      "name": "stakeToken",
      "outputs": [
        {
          "internalType": "contract IERC20",
          "name": "",
          "type": "address"
        }
      ],
      "stateMutability": "view",
      "type": "function"
    },
    {
      "inputs": [
        {
          "internalType": "address",
          "name": "newOwner",
          "type": "address"
        }
      ],
      "name": "transferOwnership",
      "outputs": [],
      "stateMutability": "nonpayable",
      "type": "function"
    }
  ],
  "bytecode": "0x60a060405234801561001057600080fd5b50604051610f57380380610f5783398101604081905261002f916100e4565b338061005557604051631e4fbdf760e01b81526000600482015260240160405180910390fd5b61005e81610094565b5060017f9b779b17422d0df92223018b32b4d1fa46e071723d6817e2486d003becc55f00556001600160a01b0316608052610114565b600080546001600160a01b038381166001600160a01b0319831681178455604051919092169283917f8be0079c531659141344cd1fd0a4f28419497f9722a3daafe3b4186f6b6457e09190a35050565b6000602082840312156100f657600080fd5b81516001600160a01b038116811461010d57600080fd5b9392505050565b608051610e1a61013d6000396000818161011b0152818161043c015261081d0152610e1a6000f3fe608060405234801561001057600080fd5b50600436106100b45760003560e01c806386b909fd1161007157806386b909fd146101585780638da5cb5b1461016d578063cb1c2b5c1461017e578063eb3409af1461018f578063f2fde38b146101a2578063fd66091e146101b557600080fd5b806307fbb3e2146100b95780632f80c54f146100d65780634e81ba8e1461010157806351ed6a3014610116578063690aa3e61461013d578063715018a614610150575b600080fd5b6100c362093a8081565b6040519081526020015b60405180910390f35b6100e96100e4366004610b6d565b610224565b6040516001600160a01b0390911681526020016100cd565b61011461010f366004610ba2565b61024e565b005b6100e97f000000000000000000000000000000000000000000000000000000000000000081565b61011461014b366004610bc4565b61036b565b610114610520565b610160610534565b6040516100cd9190610bee565b6000546001600160a01b03166100e9565b6100c369021e19e0c9bab240000081565b61011461019d366004610c3b565b6106ef565b6101146101b0366004610ba2565b610a42565b6102116101c3366004610ba2565b60016020819052600091825260409091208054918101546002820154600383015460048401546005909401546001600160a01b03909516949293919290919060ff8082169161010090041687565b6040516100cd9796959493929190610c9d565b6002818154811061023457600080fd5b6000918252602090912001546001600160a01b0316905081565b610256610a80565b6001600160a01b038116600090815260016020819052604090912090600582015460ff16600481111561028b5761028b610c87565b146102d05760405162461bcd60e51b815260206004820152601060248201526f2737ba1034b710383937b130ba34b7b760811b60448201526064015b60405180910390fd5b80600401544210156103245760405162461bcd60e51b815260206004820152601760248201527f53696d756c6174696f6e206e6f7420636f6d706c65746500000000000000000060448201526064016102c7565b60058101805460ff191660021790556040516001600160a01b038316907fa7a8c16b3ff27bf6a39d141c5c28cadca6b06341ed9cf03b462d263d2e4758a690600090a25050565b610373610a80565b6001600160a01b03821660009081526001602052604090206002600582015460ff1660048111156103a6576103a6610c87565b146103e65760405162461bcd60e51b815260206004820152601060248201526f4167656e74206e6f742061637469766560801b60448201526064016102c7565b60006127108383600201546103fb9190610d18565b6104059190610d35565b90508082600201600082825461041b9190610d57565b909155505060058201805460ff191660031790556000546001600160a01b037f000000000000000000000000000000000000000000000000000000000000000081169163a9059cbb91166040516001600160e01b031960e084901b1681526001600160a01b039091166004820152602481018490526044016020604051808303816000875af11580156104b2573d6000803e3d6000fd5b505050506040513d601f19601f820116820180604052508101906104d69190610d6a565b50836001600160a01b03167f3d701249c8b563e5444e922ce16ba533ebfb6ef4df5228ffc7127dc9b817032d8260405161051291815260200190565b60405180910390a250505050565b610528610a80565b6105326000610aad565b565b60606000805b6002548110156105be576002600160006002848154811061055d5761055d610d8c565b60009182526020808320909101546001600160a01b0316835282019290925260400190206005015460ff16600481111561059957610599610c87565b036105ac57816105a881610da2565b9250505b806105b681610da2565b91505061053a565b5060008167ffffffffffffffff8111156105da576105da610dbb565b604051908082528060200260200182016040528015610603578160200160208202803683370190505b5090506000805b6002548110156106e6576002600160006002848154811061062d5761062d610d8c565b60009182526020808320909101546001600160a01b0316835282019290925260400190206005015460ff16600481111561066957610669610c87565b036106d4576002818154811061068157610681610d8c565b6000918252602090912001546001600160a01b031683836106a181610da2565b9450815181106106b3576106b3610d8c565b60200260200101906001600160a01b031690816001600160a01b0316815250505b806106de81610da2565b91505061060a565b50909392505050565b6106f7610afd565b6001600160a01b03841660009081526001602052604081206005015460ff16600481111561072757610727610c87565b146107695760405162461bcd60e51b8152602060048201526012602482015271105b1c9958591e481c9959da5cdd195c995960721b60448201526064016102c7565b69021e19e0c9bab24000008110156107b85760405162461bcd60e51b8152602060048201526012602482015271496e73756666696369656e74207374616b6560701b60448201526064016102c7565b60028260ff1611156107fb5760405162461bcd60e51b815260206004820152600c60248201526b125b9d985b1a59081c1bdbdb60a21b60448201526064016102c7565b6040516323b872dd60e01b8152336004820152306024820152604481018290527f00000000000000000000000000000000000000000000000000000000000000006001600160a01b0316906323b872dd906064016020604051808303816000875af115801561086e573d6000803e3d6000fd5b505050506040513d601f19601f820116820180604052508101906108929190610d6a565b506040518060e00160405280336001600160a01b0316815260200184815260200182815260200142815260200162093a80426108ce9190610dd1565b81526020016001815260ff84166020918201526001600160a01b0386811660009081526001808452604091829020855181546001600160a01b03191694169390931783559284015182840155830151600282015560608301516003820155608083015160048083019190915560a084015160058301805493949193909260ff199091169190849081111561096457610964610c87565b021790555060c091909101516005909101805461ff00191661010060ff93841602179055600280546001810182556000919091527f405787fa12a823e0f2b7631cc41b3ba8828b3321ca811111fa75cd3aa3bb5ace0180546001600160a01b0319166001600160a01b0387169081179091556040805192851683526020830184905290917f4d9c920e29bb90e0c07c3a776d26ff7bea45d9387eb4a05f2ed5da5afd5005b6910160405180910390a2610a3c60017f9b779b17422d0df92223018b32b4d1fa46e071723d6817e2486d003becc55f0055565b50505050565b610a4a610a80565b6001600160a01b038116610a7457604051631e4fbdf760e01b8152600060048201526024016102c7565b610a7d81610aad565b50565b6000546001600160a01b031633146105325760405163118cdaa760e01b81523360048201526024016102c7565b600080546001600160a01b038381166001600160a01b0319831681178455604051919092169283917f8be0079c531659141344cd1fd0a4f28419497f9722a3daafe3b4186f6b6457e09190a35050565b610b05610b2b565b60027f9b779b17422d0df92223018b32b4d1fa46e071723d6817e2486d003becc55f0055565b7f9b779b17422d0df92223018b32b4d1fa46e071723d6817e2486d003becc55f005460020361053257604051633ee5aeb560e01b815260040160405180910390fd5b600060208284031215610b7f57600080fd5b5035919050565b80356001600160a01b0381168114610b9d57600080fd5b919050565b600060208284031215610bb457600080fd5b610bbd82610b86565b9392505050565b60008060408385031215610bd757600080fd5b610be083610b86565b946020939093013593505050565b6020808252825182820181905260009190848201906040850190845b81811015610c2f5783516001600160a01b031683529284019291840191600101610c0a565b50909695505050505050565b60008060008060808587031215610c5157600080fd5b610c5a85610b86565b935060208501359250604085013560ff81168114610c7757600080fd5b9396929550929360600135925050565b634e487b7160e01b600052602160045260246000fd5b6001600160a01b03881681526020810187905260408101869052606081018590526080810184905260e0810160058410610ce757634e487b7160e01b600052602160045260246000fd5b8360a083015260ff831660c083015298975050505050505050565b634e487b7160e01b600052601160045260246000fd5b8082028115828204841417610d2f57610d2f610d02565b92915050565b600082610d5257634e487b7160e01b600052601260045260246000fd5b500490565b81810381811115610d2f57610d2f610d02565b600060208284031215610d7c57600080fd5b81518015158114610bbd57600080fd5b634e487b7160e01b600052603260045260246000fd5b600060018201610db457610db4610d02565b5060010190565b634e487b7160e01b600052604160045260246000fd5b80820180821115610d2f57610d2f610d0256fea26469706673582212205d79f183ab3805170d6b7e63bae878a73b09f60046fac98ba8f76e8e9b2d327164736f6c63430008140033",
  "linkReferences": {},
  "deployedLinkReferences": {}
}