{
  "_format": "hh-sol-artifact-1",
  "contractName": "MockAavePool",
  "sourceName": "src/MockAavePool.sol",
  "abi": [
    {
      "anonymous": false,
      "inputs": [
        {
          "indexed": true,
          "internalType": "address",
          "name": "user",
          "type": "address"
        },
        {
          "indexed": true,
          "internalType": "address",
          "name": "token",
          "type": "address"
        },
        {
          "indexed": false,
          "internalType": "uint256",
          "name": "amount",
          "type": "uint256"
        }
      ],
      "name": "Borrowed",
      "type": "event"
    },
    {
      "anonymous": false,
      "inputs": [],
      "name": "InterestAccrued",
      "type": "event"
    },
    {
      "anonymous": false,
      "inputs": [
        {
          "indexed": true,
          "internalType": "address",
          "name": "user",
          "type": "address"
        },
        {
          "indexed": true,
          "internalType": "address",
          "name": "token",
          "type": "address"
        },
        {
          "indexed": false,
          "internalType": "uint256",
          "name": "amount",
          "type": "uint256"
        }
      ],
      "name": "Supplied",
      "type": "event"
    },
    {
      "anonymous": false,
      "inputs": [
        {
          "indexed": true,
          "internalType": "address",
          "name": "user",
          "type": "address"
        },
        {
          "indexed": true,
          "internalType": "address",
          "name": "token",
          "type": "address"
        },
        {
          "indexed": false,
          "internalType": "uint256",
          "name": "amount",
          "type": "uint256"
        }
      ],
      "name": "Withdrawn",
      "type": "event"
    },
    {
      "inputs": [],
      "name": "BORROW_RATE_PER_TICK_DEN",
      "outputs": [
        {
          "internalType": "uint256",
          "name": "",
          "type": "uint256"
        }
      ],
      "stateMutability": "view",
      "type": "function"
    },
    {
      "inputs": [],
      "name": "BORROW_RATE_PER_TICK_NUM",
      "outputs": [
        {
          "internalType": "uint256",
          "name": "",
          "type": "uint256"
        }
      ],
      "stateMutability": "view",
      "type": "function"
    },
    {
      "inputs": [],
      "name": "SUPPLY_RATE_PER_TICK_DEN",
      "outputs": [
        {
          "internalType": "uint256",
          "name": "",
          "type": "uint256"
        }
      ],
      "stateMutability": "view",
      "type": "function"
    },
    {
      "inputs": [],
      "name": "SUPPLY_RATE_PER_TICK_NUM",
      "outputs": [
        {
          "internalType": "uint256",
          "name": "",
          "type": "uint256"
        }
      ],
      "stateMutability": "view",
      "type": "function"
    },
    {
      "inputs": [],
      "name": "accrueInterest",
      "outputs": [],
      "stateMutability": "nonpayable",
      "type": "function"
    },
    {
      "inputs": [
        {
          "internalType": "address",
          "name": "token",
          "type": "address"
        },
        {
          "internalType": "uint256",
          "name": "amount",
          "type": "uint256"
        },
        {
          "internalType": "address",
          "name": "onBehalfOf",
          "type": "address"
        }
      ],
      "name": "borrow",
      "outputs": [],
      "stateMutability": "nonpayable",
      "type": "function"
    },
    {
      "inputs": [
        {
          "internalType": "address",
          "name": "",
          "type": "address"
        },
        {
          "internalType": "address",
          "name": "",
          "type": "address"
        }
      ],
      "name": "debtPositions",
      "outputs": [
        {
          "internalType": "uint256",
          "name": "",
          "type": "uint256"
        }
      ],
      "stateMutability": "view",
      "type": "function"
    },
    {
      "inputs": [
        {
          "internalType": "address",
          "name": "token",
          "type": "address"
        },
        {
          "internalType": "uint256",
          "name": "amount",
          "type": "uint256"
        },
        {
          "internalType": "address",
          "name": "onBehalfOf",
          "type": "address"
        }
      ],
      "name": "supply",
      "outputs": [],
      "stateMutability": "nonpayable",
      "type": "function"
    },
    {
      "inputs": [
        {
          "internalType": "address",
          "name": "",
          "type": "address"
        },
        {
          "internalType": "address",
          "name": "",
          "type": "address"
        }
      ],
      "name": "supplyPositions",
      "outputs": [
        {
          "internalType": "uint256",
          "name": "",
          "type": "uint256"
        }
      ],
      "stateMutability": "view",
      "type": "function"
    },
    {
      "inputs": [
        {
          "internalType": "address",
          "name": "token",
          "type": "address"
        },
        {
          "internalType": "uint256",
          "name": "amount",
          "type": "uint256"
        },
        {
          "internalType": "address",
          "name": "to",
          "type": "address"
        }
      ],
      "name": "withdraw",
      "outputs": [],
      "stateMutability": "nonpayable",
      "type": "function"
    }
  ],
  "bytecode": "0x608060405234801561001057600080fd5b506109c9806100206000396000f3fe608060405234801561001057600080fd5b506004361061009e5760003560e01c80637c4d47a7116100665780637c4d47a71461013857806385acb8e3146101405780638b2a4df51461014b578063a6afed951461015e578063f8fb82741461014057600080fd5b80630cde4854146100a3578063158245a5146100dd5780631baf59d71461010857806369328dec146101105780636c665a5514610125575b600080fd5b6100cb6100b1366004610851565b600060208181529281526040808220909352908152205481565b60405190815260200160405180910390f35b6100cb6100eb366004610851565b600160209081526000928352604080842090915290825290205481565b6100cb600881565b61012361011e366004610884565b610166565b005b610123610133366004610884565b6102cc565b6100cb600581565b6100cb6312cc030081565b610123610159366004610884565b610407565b610123610556565b336000908152602081815260408083206001600160a01b03871684529091529020548211156101dc5760405162461bcd60e51b815260206004820152601c60248201527f496e73756666696369656e7420737570706c7920706f736974696f6e0000000060448201526064015b60405180910390fd5b336000908152602081815260408083206001600160a01b03871684529091528120805484929061020d9084906108d6565b909155505060405163a9059cbb60e01b81526001600160a01b0382811660048301526024820184905284169063a9059cbb906044016020604051808303816000875af1158015610261573d6000803e3d6000fd5b505050506040513d601f19601f8201168201806040525081019061028591906108ef565b506040518281526001600160a01b0384169033907fd1c19fbcd4551a5edfb66d43d2e337c04837afda3482b42bdf569a8fccdae5fb906020015b60405180910390a3505050565b600082116103115760405162461bcd60e51b81526020600482015260126024820152710416d6f756e74206d757374206265203e20360741b60448201526064016101d3565b6040516340c10f1960e01b81526001600160a01b038281166004830152602482018490528416906340c10f1990604401600060405180830381600087803b15801561035b57600080fd5b505af115801561036f573d6000803e3d6000fd5b505050506001600160a01b038181166000908152600160209081526040808320938716835292905290812080548492906103aa908490610918565b909155506103b9905081610726565b6103c2836107af565b826001600160a01b0316816001600160a01b03167f3fc499aeb0bb1cb58b6de8b02b3f86f4e7394e9690bef0110e32ced8a5631045846040516102bf91815260200190565b6000821161044c5760405162461bcd60e51b81526020600482015260126024820152710416d6f756e74206d757374206265203e20360741b60448201526064016101d3565b6040516323b872dd60e01b8152336004820152306024820152604481018390526001600160a01b038416906323b872dd906064016020604051808303816000875af115801561049f573d6000803e3d6000fd5b505050506040513d601f19601f820116820180604052508101906104c391906108ef565b506001600160a01b03808216600090815260208181526040808320938716835292905290812080548492906104f9908490610918565b90915550610508905081610726565b610511836107af565b826001600160a01b0316816001600160a01b03167f523322d7afb07cee28d04498651096af062004e1f14315eff2e4a60290dfadda846040516102bf91815260200190565b60005b6002548110156106fa576000600282815481106105785761057861092b565b60009182526020822001546001600160a01b031691505b6003548110156106e5576000600382815481106105ae576105ae61092b565b60009182526020808320909101546001600160a01b03868116845283835260408085209190921680855292529091205490915080156106445760006312cc03006105f9600584610941565b6106039190610958565b6001600160a01b0380871660009081526020818152604080832093881683529290529081208054929350839290919061063d908490610918565b9091555050505b6001600160a01b0380851660009081526001602090815260408083209386168352929052205480156106cf5760006312cc0300610682600884610941565b61068c9190610958565b6001600160a01b0380881660009081526001602090815260408083209389168352929052908120805492935083929091906106c8908490610918565b9091555050505b50505080806106dd9061097a565b91505061058f565b505080806106f29061097a565b915050610559565b506040517f0eea45ea4285e777a77afd92709f311123f4061ec33aeccd8f9478bf44dead5690600090a1565b6001600160a01b03811660009081526004602052604090205460ff166107ac576001600160a01b0381166000818152600460205260408120805460ff191660019081179091556002805491820181559091527f405787fa12a823e0f2b7631cc41b3ba8828b3321ca811111fa75cd3aa3bb5ace0180546001600160a01b03191690911790555b50565b6001600160a01b03811660009081526005602052604090205460ff166107ac576001600160a01b03166000818152600560205260408120805460ff191660019081179091556003805491820181559091527fc2575a0e9e593c00f959f8c92f12db2869c3395a3b0502d05e2516446f71f85b0180546001600160a01b0319169091179055565b80356001600160a01b038116811461084c57600080fd5b919050565b6000806040838503121561086457600080fd5b61086d83610835565b915061087b60208401610835565b90509250929050565b60008060006060848603121561089957600080fd5b6108a284610835565b9250602084013591506108b760408501610835565b90509250925092565b634e487b7160e01b600052601160045260246000fd5b818103818111156108e9576108e96108c0565b92915050565b60006020828403121561090157600080fd5b8151801515811461091157600080fd5b9392505050565b808201808211156108e9576108e96108c0565b634e487b7160e01b600052603260045260246000fd5b80820281158282048414176108e9576108e96108c0565b60008261097557634e487b7160e01b600052601260045260246000fd5b500490565b60006001820161098c5761098c6108c0565b506001019056fea2646970667358221220543ad18eabd505843b6212a362952ab1c79e8247f663e8bb173b2e02a3e23add64736f6c63430008140033",
  "linkReferences": {},
  "deployedLinkReferences": {}
}