{
  "_format": "hh-sol-artifact-1",
  "contractName": "AllocationEngine",
  "sourceName": "src/AllocationEngine.sol",
  "abi": [
    {
      "inputs": [
        {
          "internalType": "address",
          "name": "_vault",
          "type": "address"
        }
      ],
      "stateMutability": "nonpayable",
      "type": "constructor"
    },
    {
      "inputs": [
        {
          "internalType": "address",
          "name": "owner",
          "type": "address"
        }
      ],
      "name": "OwnableInvalidOwner",
      "type": "error"
    },
    {
      "inputs": [
        {
          "internalType": "address",
          "name": "account",
          "type": "address"
        }
      ],
      "name": "OwnableUnauthorizedAccount",
      "type": "error"
    },
    {
      "anonymous": false,
      "inputs": [
        {
          "indexed": false,
          "internalType": "uint256",
          "name": "newEta",
          "type": "uint256"
        }
      ],
      "name": "EtaUpdated",
      "type": "event"
    },
    {
      "anonymous": false,
      "inputs": [
        {
          "indexed": true,
          "internalType": "address",
          "name": "previousOwner",
          "type": "address"
        },
        {
          "indexed": true,
          "internalType": "address",
          "name": "newOwner",
          "type": "address"
        }
      ],
      "name": "OwnershipTransferred",
      "type": "event"
    },
    {
      "anonymous": false,
      "inputs": [
        {
          "indexed": true,
          "internalType": "address",
          "name": "agent",
          "type": "address"
        },
        {
          "indexed": false,
          "internalType": "uint256",
          "name": "score",
          "type": "uint256"
        }
      ],
      "name": "ReputationUpdated",
      "type": "event"
    },
    {
      "anonymous": false,
      "inputs": [
        {
          "indexed": false,
          "internalType": "address[]",
          "name": "agents",
          "type": "address[]"
        },
        {
          "indexed": false,
          "internalType": "int256[]",
          "name": "scores",
          "type": "int256[]"
        }
      ],
      "name": "ScoresSubmitted",
      "type": "event"
    },
    {
      "inputs": [],
      "name": "ALPHA",
      "outputs": [
        {
          "internalType": "uint256",
          "name": "",
          "type": "uint256"
        }
      ],
      "stateMutability": "view",
      "type": "function"
    },
    {
      "inputs": [
        {
          "internalType": "address",
          "name": "",
          "type": "address"
        }
      ],
      "name": "agentScores",
      "outputs": [
        {
          "internalType": "int256",
          "name": "",
          "type": "int256"
        }
      ],
      "stateMutability": "view",
      "type": "function"
    },
    {
      "inputs": [],
      "name": "eta",
      "outputs": [
        {
          "internalType": "uint256",
          "name": "",
          "type": "uint256"
        }
      ],
      "stateMutability": "view",
      "type": "function"
    },
    {
      "inputs": [],
      "name": "owner",
      "outputs": [
        {
          "internalType": "address",
          "name": "",
          "type": "address"
        }
      ],
      "stateMutability": "view",
      "type": "function"
    },
    {
      "inputs": [],
      "name": "renounceOwnership",
      "outputs": [],
      "stateMutability": "nonpayable",
      "type": "function"
    },
    {
      "inputs": [
        {
          "internalType": "address",
          "name": "",
          "type": "address"
        }
      ],
      "name": "reputationScores",
      "outputs": [
        {
          "internalType": "uint256",
          "name": "",
          "type": "uint256"
        }
      ],
      "stateMutability": "view",
      "type": "function"
    },
    {
      "inputs": [
        {
          "internalType": "uint256",
          "name": "_eta",
          "type": "uint256"
        }
      ],
      "name": "setEta",
      "outputs": [],
      "stateMutability": "nonpayable",
      "type": "function"
    },
    {
      "inputs": [
        {
          "internalType": "address[]",
          "name": "agents",
          "type": "address[]"
        },
        {
          "internalType": "int256[]",
          "name": "scores",
          "type": "int256[]"
        },
        {
          "internalType": "uint256[]",
          "name": "weights",
          "type": "uint256[]"
        }
      ],
      "name": "submitUpdate",
      "outputs": [],
      "stateMutability": "nonpayable",
      "type": "function"
    },
    {
      "inputs": [
        {
          "internalType": "address",
          "name": "newOwner",
          "type": "address"
        }
      ],
      "name": "transferOwnership",
      "outputs": [],
      "stateMutability": "nonpayable",
      "type": "function"
    },
    {
      "inputs": [],
      "name": "updateCount",
      "outputs": [
        {
          "internalType": "uint256",
          "name": "",
          "type": "uint256"
        }
      ],
      "stateMutability": "view",
      "type": "function"
    },
    {
      "inputs": [],
      "name": "vault",
      "outputs": [
        {
          "internalType": "address",
          "name": "",
          "type": "address"
        }
      ],
      "stateMutability": "view",
      "type": "function"
    }
  ],
  "bytecode": "0x608060405261271060025534801561001657600080fd5b506040516109ba3803806109ba833981016040819052610035916100da565b338061005b57604051631e4fbdf760e01b81526000600482015260240160405180910390fd5b6100648161008a565b50600180546001600160a01b0319166001600160a01b039290921691909117905561010a565b600080546001600160a01b038381166001600160a01b0319831681178455604051919092169283917f8be0079c531659141344cd1fd0a4f28419497f9722a3daafe3b4186f6b6457e09190a35050565b6000602082840312156100ec57600080fd5b81516001600160a01b038116811461010357600080fd5b9392505050565b6108a1806101196000396000f3fe608060405234801561001057600080fd5b50600436106100a95760003560e01c8063c151373011610071578063c151373014610115578063ca70b2e714610128578063f2fde38b14610148578063f7992d851461015b578063fbfa77cf14610164578063fe0438b21461017757600080fd5b80636573570e146100ae57806369b4ecc9146100c3578063715018a6146100df5780638da5cb5b146100e7578063b0bb1c5a1461010c575b600080fd5b6100c16100bc36600461059e565b610197565b005b6100cc60055481565b6040519081526020015b60405180910390f35b6100c1610230565b6000546001600160a01b03165b6040516001600160a01b0390911681526020016100d6565b6100cc61012c81565b6100c1610123366004610603565b610244565b6100cc6101363660046106b9565b60036020526000908152604090205481565b6100c16101563660046106b9565b61041f565b6100cc60025481565b6001546100f4906001600160a01b031681565b6100cc6101853660046106b9565b60046020526000908152604090205481565b61019f61045d565b6000811180156101b1575061c3508111155b6101f55760405162461bcd60e51b815260206004820152601060248201526f657461206f7574206f662072616e676560801b60448201526064015b60405180910390fd5b60028190556040518181527fd0abb99614ea6e7314f35d41c493983457a01ea132158caff3d255571474fffb9060200160405180910390a150565b61023861045d565b610242600061048a565b565b61024c61045d565b848314801561025a57508481145b6102985760405162461bcd60e51b815260206004820152600f60248201526e098cadccee8d040dad2e6dac2e8c6d608b1b60448201526064016101ec565b60005b8581101561035b578484828181106102b5576102b56106db565b90506020020135600360008989858181106102d2576102d26106db565b90506020020160208101906102e791906106b9565b6001600160a01b03168152602081019190915260400160002055610349878783818110610316576103166106db565b905060200201602081019061032b91906106b9565b86868481811061033d5761033d6106db565b905060200201356104da565b8061035381610707565b91505061029b565b506001546040516374c5ad4f60e01b81526001600160a01b03909116906374c5ad4f90610392908990899087908790600401610767565b600060405180830381600087803b1580156103ac57600080fd5b505af11580156103c0573d6000803e3d6000fd5b5050600580549250905060006103d583610707565b91905055507fe971a23f586016e8ef936d8f65646352a4f77ed831d1cd1c9b8f700bc325fe738686868660405161040f94939291906107b3565b60405180910390a1505050505050565b61042761045d565b6001600160a01b03811661045157604051631e4fbdf760e01b8152600060048201526024016101ec565b61045a8161048a565b50565b6000546001600160a01b031633146102425760405163118cdaa760e01b81523360048201526024016101ec565b600080546001600160a01b038381166001600160a01b0319831681178455604051919092169283917f8be0079c531659141344cd1fd0a4f28419497f9722a3daafe3b4186f6b6457e09190a35050565b60008082136104ea5760006104ec565b815b6001600160a01b0384166000908152600460205260409020549091506103e88161051861012c83610806565b610522919061081f565b61052e8461012c61081f565b6105389190610836565b6105429190610849565b6001600160a01b038516600081815260046020526040908190208390555190917ffc577563f1b9a0461e24abef1e1fcc0d33d3d881f20b5df6dda59de4aae2c8219161059091815260200190565b60405180910390a250505050565b6000602082840312156105b057600080fd5b5035919050565b60008083601f8401126105c957600080fd5b50813567ffffffffffffffff8111156105e157600080fd5b6020830191508360208260051b85010111156105fc57600080fd5b9250929050565b6000806000806000806060878903121561061c57600080fd5b863567ffffffffffffffff8082111561063457600080fd5b6106408a838b016105b7565b9098509650602089013591508082111561065957600080fd5b6106658a838b016105b7565b9096509450604089013591508082111561067e57600080fd5b5061068b89828a016105b7565b979a9699509497509295939492505050565b80356001600160a01b03811681146106b457600080fd5b919050565b6000602082840312156106cb57600080fd5b6106d48261069d565b9392505050565b634e487b7160e01b600052603260045260246000fd5b634e487b7160e01b600052601160045260246000fd5b600060018201610719576107196106f1565b5060010190565b8183526000602080850194508260005b8581101561075c576001600160a01b036107498361069d565b1687529582019590820190600101610730565b509495945050505050565b60408152600061077b604083018688610720565b82810360208401528381526001600160fb1b0384111561079a57600080fd5b8360051b80866020840137016020019695505050505050565b6040815260006107c7604083018688610720565b8281036020848101919091528482528591810160005b868110156107f9578335825292820192908201906001016107dd565b5098975050505050505050565b81810381811115610819576108196106f1565b92915050565b8082028115828204841417610819576108196106f1565b80820180821115610819576108196106f1565b60008261086657634e487b7160e01b600052601260045260246000fd5b50049056fea26469706673582212203182f464104cd19dae7cc50c866ab4935aed42f5edc53fbdee5bbe4b471e28e264736f6c63430008140033",
  "linkReferences": {},
  "deployedLinkReferences": {}
}